{
  "contractName": "Betting",
  "abi": [
    {
      "inputs": [
        {
          "internalType": "address",
          "name": "tokenAddress",
          "type": "address"
        },
        {
          "internalType": "address",
          "name": "bankWalletAddress",
          "type": "address"
        }
      ],
      "payable": false,
      "stateMutability": "nonpayable",
      "type": "constructor"
    },
    {
      "anonymous": false,
      "inputs": [
        {
          "indexed": true,
          "internalType": "address",
          "name": "previousOwner",
          "type": "address"
        },
        {
          "indexed": true,
          "internalType": "address",
          "name": "newOwner",
          "type": "address"
        }
      ],
      "name": "OwnershipTransferred",
      "type": "event"
    },
    {
      "constant": true,
      "inputs": [],
      "name": "_poolCount",
      "outputs": [
        {
          "internalType": "uint256",
          "name": "",
          "type": "uint256"
        }
      ],
      "payable": false,
      "stateMutability": "view",
      "type": "function"
    },
    {
      "constant": true,
      "inputs": [
        {
          "internalType": "address",
          "name": "",
          "type": "address"
        }
      ],
      "name": "_pools",
      "outputs": [
        {
          "internalType": "address",
          "name": "token",
          "type": "address"
        },
        {
          "internalType": "string",
          "name": "name",
          "type": "string"
        },
        {
          "internalType": "uint256",
          "name": "totalPositiveAmount",
          "type": "uint256"
        },
        {
          "internalType": "uint256",
          "name": "totalNegativeAmount",
          "type": "uint256"
        }
      ],
      "payable": false,
      "stateMutability": "view",
      "type": "function"
    },
    {
      "constant": true,
      "inputs": [
        {
          "internalType": "uint256",
          "name": "",
          "type": "uint256"
        }
      ],
      "name": "_poolsIndexes",
      "outputs": [
        {
          "internalType": "address",
          "name": "",
          "type": "address"
        }
      ],
      "payable": false,
      "stateMutability": "view",
      "type": "function"
    },
    {
      "constant": true,
      "inputs": [],
      "name": "owner",
      "outputs": [
        {
          "internalType": "address",
          "name": "",
          "type": "address"
        }
      ],
      "payable": false,
      "stateMutability": "view",
      "type": "function"
    },
    {
      "constant": false,
      "inputs": [],
      "name": "renounceOwnership",
      "outputs": [],
      "payable": false,
      "stateMutability": "nonpayable",
      "type": "function"
    },
    {
      "constant": false,
      "inputs": [
        {
          "internalType": "address",
          "name": "bankWalletAddress",
          "type": "address"
        }
      ],
      "name": "setBankWalletAddress",
      "outputs": [],
      "payable": false,
      "stateMutability": "nonpayable",
      "type": "function"
    },
    {
      "constant": false,
      "inputs": [
        {
          "internalType": "address",
          "name": "tokenAddress",
          "type": "address"
        }
      ],
      "name": "setTokenAddress",
      "outputs": [],
      "payable": false,
      "stateMutability": "nonpayable",
      "type": "function"
    },
    {
      "constant": true,
      "inputs": [
        {
          "internalType": "address",
          "name": "account",
          "type": "address"
        }
      ],
      "name": "tokenBalanceOf",
      "outputs": [
        {
          "internalType": "uint256",
          "name": "",
          "type": "uint256"
        }
      ],
      "payable": false,
      "stateMutability": "view",
      "type": "function"
    },
    {
      "constant": true,
      "inputs": [],
      "name": "tokenBalanceOfBank",
      "outputs": [
        {
          "internalType": "uint256",
          "name": "",
          "type": "uint256"
        }
      ],
      "payable": false,
      "stateMutability": "view",
      "type": "function"
    },
    {
      "constant": false,
      "inputs": [
        {
          "internalType": "address",
          "name": "newOwner",
          "type": "address"
        }
      ],
      "name": "transferOwnership",
      "outputs": [],
      "payable": false,
      "stateMutability": "nonpayable",
      "type": "function"
    },
    {
      "constant": false,
      "inputs": [
        {
          "internalType": "uint256",
          "name": "amount",
          "type": "uint256"
        }
      ],
      "name": "transferToBankWallet",
      "outputs": [],
      "payable": false,
      "stateMutability": "nonpayable",
      "type": "function"
    },
    {
      "constant": false,
      "inputs": [
        {
          "internalType": "uint256",
          "name": "price",
          "type": "uint256"
        }
      ],
      "name": "setPoolCreationPrice",
      "outputs": [],
      "payable": false,
      "stateMutability": "nonpayable",
      "type": "function"
    },
    {
      "constant": false,
      "inputs": [
        {
          "internalType": "address",
          "name": "token",
          "type": "address"
        },
        {
          "internalType": "string",
          "name": "name",
          "type": "string"
        },
        {
          "internalType": "uint256",
          "name": "positiveAmount",
          "type": "uint256"
        },
        {
          "internalType": "uint256",
          "name": "negativeAmount",
          "type": "uint256"
        }
      ],
      "name": "createPool",
      "outputs": [],
      "payable": false,
      "stateMutability": "nonpayable",
      "type": "function"
    },
    {
      "constant": false,
      "inputs": [
        {
          "internalType": "address",
          "name": "token",
          "type": "address"
        },
        {
          "internalType": "uint256",
          "name": "positiveAmount",
          "type": "uint256"
        },
        {
          "internalType": "uint256",
          "name": "negativeAmount",
          "type": "uint256"
        }
      ],
      "name": "bet",
      "outputs": [],
      "payable": false,
      "stateMutability": "nonpayable",
      "type": "function"
    },
    {
      "constant": false,
      "inputs": [
        {
          "internalType": "address",
          "name": "token",
          "type": "address"
        },
        {
          "internalType": "uint256",
          "name": "positiveAmount",
          "type": "uint256"
        },
        {
          "internalType": "uint256",
          "name": "negativeAmount",
          "type": "uint256"
        }
      ],
      "name": "unbet",
      "outputs": [],
      "payable": false,
      "stateMutability": "nonpayable",
      "type": "function"
    }
  ],
  "bytecode": "0x60806040526000600455683635c9adc5dea000006005553480156200002357600080fd5b506040516200220b3803806200220b833981810160405260408110156200004957600080fd5b8101908080519060200190929190805190602001909291905050508181336000806101000a81548173ffffffffffffffffffffffffffffffffffffffff021916908373ffffffffffffffffffffffffffffffffffffffff1602179055506000809054906101000a900473ffffffffffffffffffffffffffffffffffffffff1673ffffffffffffffffffffffffffffffffffffffff16600073ffffffffffffffffffffffffffffffffffffffff167f8be0079c531659141344cd1fd0a4f28419497f9722a3daafe3b4186f6b6457e060405160405180910390a362000133826200029660201b60201c565b6200014481620003de60201b60201c565b5050600073ffffffffffffffffffffffffffffffffffffffff168273ffffffffffffffffffffffffffffffffffffffff161415620001ea576040517f08c379a00000000000000000000000000000000000000000000000000000000081526004018080602001828103825260158152602001807f546f6b656e2061646472657373206e6f7420736574000000000000000000000081525060200191505060405180910390fd5b600073ffffffffffffffffffffffffffffffffffffffff168173ffffffffffffffffffffffffffffffffffffffff1614156200028e576040517f08c379a000000000000000000000000000000000000000000000000000000000815260040180806020018281038252601b8152602001807f42616e6b2077616c6c65742061646472657373206e6f7420736574000000000081525060200191505060405180910390fd5b5050620004e5565b3373ffffffffffffffffffffffffffffffffffffffff166000809054906101000a900473ffffffffffffffffffffffffffffffffffffffff1673ffffffffffffffffffffffffffffffffffffffff161462000359576040517f08c379a000000000000000000000000000000000000000000000000000000000815260040180806020018281038252601c8152602001807f43616c6c65722063616e206f6e6c7920626520746865206f776e65720000000081525060200191505060405180910390fd5b80600260006101000a81548173ffffffffffffffffffffffffffffffffffffffff021916908373ffffffffffffffffffffffffffffffffffffffff16021790555080600360006101000a81548173ffffffffffffffffffffffffffffffffffffffff021916908373ffffffffffffffffffffffffffffffffffffffff16021790555050565b3373ffffffffffffffffffffffffffffffffffffffff166000809054906101000a900473ffffffffffffffffffffffffffffffffffffffff1673ffffffffffffffffffffffffffffffffffffffff1614620004a1576040517f08c379a000000000000000000000000000000000000000000000000000000000815260040180806020018281038252601c8152602001807f43616c6c65722063616e206f6e6c7920626520746865206f776e65720000000081525060200191505060405180910390fd5b80600160006101000a81548173ffffffffffffffffffffffffffffffffffffffff021916908373ffffffffffffffffffffffffffffffffffffffff16021790555050565b611d1680620004f56000396000f3fe608060405234801561001057600080fd5b50600436106100f55760003560e01c8063715018a611610097578063bc6eec4011610066578063bc6eec401461044d578063e42c08f21461054b578063f2fde38b146105a3578063f3687a8d146105e7576100f5565b8063715018a614610383578063789f51a01461038d5780638a1b00f6146103e55780638da5cb5b14610403576100f5565b80633bb63886116100d35780633bb63886146101b05780633d34d8bd146101ce57806340b34aaa14610226578063438dded014610294576100f5565b80632186862e146100fa57806326a4e8d21461012857806329b3be901461016c575b600080fd5b6101266004803603602081101561011057600080fd5b8101908080359060200190929190505050610615565b005b61016a6004803603602081101561013e57600080fd5b81019080803573ffffffffffffffffffffffffffffffffffffffff1690602001909291905050506108a8565b005b6101ae6004803603602081101561018257600080fd5b81019080803573ffffffffffffffffffffffffffffffffffffffff1690602001909291905050506109ef565b005b6101b8610af5565b6040518082815260200191505060405180910390f35b610224600480360360608110156101e457600080fd5b81019080803573ffffffffffffffffffffffffffffffffffffffff1690602001909291908035906020019092919080359060200190929190505050610afb565b005b6102526004803603602081101561023c57600080fd5b8101908080359060200190929190505050610e08565b604051808273ffffffffffffffffffffffffffffffffffffffff1673ffffffffffffffffffffffffffffffffffffffff16815260200191505060405180910390f35b610381600480360360808110156102aa57600080fd5b81019080803573ffffffffffffffffffffffffffffffffffffffff169060200190929190803590602001906401000000008111156102e757600080fd5b8201836020820111156102f957600080fd5b8035906020019184600183028401116401000000008311171561031b57600080fd5b91908080601f016020809104026020016040519081016040528093929190818152602001838380828437600081840152601f19601f8201169050808301925050505050505091929192908035906020019092919080359060200190929190505050610e3b565b005b61038b61108d565b005b6103e3600480360360608110156103a357600080fd5b81019080803573ffffffffffffffffffffffffffffffffffffffff169060200190929190803590602001909291908035906020019092919050505061120e565b005b6103ed611324565b6040518082815260200191505060405180910390f35b61040b611427565b604051808273ffffffffffffffffffffffffffffffffffffffff1673ffffffffffffffffffffffffffffffffffffffff16815260200191505060405180910390f35b61048f6004803603602081101561046357600080fd5b81019080803573ffffffffffffffffffffffffffffffffffffffff169060200190929190505050611450565b604051808573ffffffffffffffffffffffffffffffffffffffff1673ffffffffffffffffffffffffffffffffffffffff16815260200180602001848152602001838152602001828103825285818151815260200191508051906020019080838360005b8381101561050d5780820151818401526020810190506104f2565b50505050905090810190601f16801561053a5780820380516001836020036101000a031916815260200191505b509550505050505060405180910390f35b61058d6004803603602081101561056157600080fd5b81019080803573ffffffffffffffffffffffffffffffffffffffff169060200190929190505050611538565b6040518082815260200191505060405180910390f35b6105e5600480360360208110156105b957600080fd5b81019080803573ffffffffffffffffffffffffffffffffffffffff16906020019092919050505061161b565b005b610613600480360360208110156105fd57600080fd5b8101908080359060200190929190505050611821565b005b600032905081600360009054906101000a900473ffffffffffffffffffffffffffffffffffffffff1673ffffffffffffffffffffffffffffffffffffffff166370a08231836040518263ffffffff1660e01b8152600401808273ffffffffffffffffffffffffffffffffffffffff1673ffffffffffffffffffffffffffffffffffffffff16815260200191505060206040518083038186803b1580156106ba57600080fd5b505afa1580156106ce573d6000803e3d6000fd5b505050506040513d60208110156106e457600080fd5b81019080805190602001909291905050501015610769576040517f08c379a00000000000000000000000000000000000000000000000000000000081526004018080602001828103825260198152602001807f53656e6465722062616c616e636520697320746f6f206c6f770000000000000081525060200191505060405180910390fd5b600360009054906101000a900473ffffffffffffffffffffffffffffffffffffffff1673ffffffffffffffffffffffffffffffffffffffff166323b872dd82600160009054906101000a900473ffffffffffffffffffffffffffffffffffffffff16856040518463ffffffff1660e01b8152600401808473ffffffffffffffffffffffffffffffffffffffff1673ffffffffffffffffffffffffffffffffffffffff1681526020018373ffffffffffffffffffffffffffffffffffffffff1673ffffffffffffffffffffffffffffffffffffffff1681526020018281526020019350505050602060405180830381600087803b15801561086857600080fd5b505af115801561087c573d6000803e3d6000fd5b505050506040513d602081101561089257600080fd5b8101908080519060200190929190505050505050565b3373ffffffffffffffffffffffffffffffffffffffff166000809054906101000a900473ffffffffffffffffffffffffffffffffffffffff1673ffffffffffffffffffffffffffffffffffffffff161461096a576040517f08c379a000000000000000000000000000000000000000000000000000000000815260040180806020018281038252601c8152602001807f43616c6c65722063616e206f6e6c7920626520746865206f776e65720000000081525060200191505060405180910390fd5b80600260006101000a81548173ffffffffffffffffffffffffffffffffffffffff021916908373ffffffffffffffffffffffffffffffffffffffff16021790555080600360006101000a81548173ffffffffffffffffffffffffffffffffffffffff021916908373ffffffffffffffffffffffffffffffffffffffff16021790555050565b3373ffffffffffffffffffffffffffffffffffffffff166000809054906101000a900473ffffffffffffffffffffffffffffffffffffffff1673ffffffffffffffffffffffffffffffffffffffff1614610ab1576040517f08c379a000000000000000000000000000000000000000000000000000000000815260040180806020018281038252601c8152602001807f43616c6c65722063616e206f6e6c7920626520746865206f776e65720000000081525060200191505060405180910390fd5b80600160006101000a81548173ffffffffffffffffffffffffffffffffffffffff021916908373ffffffffffffffffffffffffffffffffffffffff16021790555050565b60045481565b6000600760008573ffffffffffffffffffffffffffffffffffffffff1673ffffffffffffffffffffffffffffffffffffffff16815260200190815260200160002090508373ffffffffffffffffffffffffffffffffffffffff168160000160009054906101000a900473ffffffffffffffffffffffffffffffffffffffff1673ffffffffffffffffffffffffffffffffffffffff1614610be6576040517f08c379a0000000000000000000000000000000000000000000000000000000008152600401808060200182810382526022815260200180611c9c6022913960400191505060405180910390fd5b828160030160003373ffffffffffffffffffffffffffffffffffffffff1673ffffffffffffffffffffffffffffffffffffffff168152602001908152602001600020541015610c80576040517f08c379a000000000000000000000000000000000000000000000000000000000815260040180806020018281038252602d815260200180611c6f602d913960400191505060405180910390fd5b818160050160003373ffffffffffffffffffffffffffffffffffffffff1673ffffffffffffffffffffffffffffffffffffffff168152602001908152602001600020541015610d1a576040517f08c379a000000000000000000000000000000000000000000000000000000000815260040180806020018281038252602d815260200180611c42602d913960400191505060405180910390fd5b6000831115610d8e57610d2c836118ed565b828160030160003373ffffffffffffffffffffffffffffffffffffffff1673ffffffffffffffffffffffffffffffffffffffff168152602001908152602001600020600082825403925050819055508281600201600082825403925050819055505b6000821115610e0257610da0826118ed565b818160050160003373ffffffffffffffffffffffffffffffffffffffff1673ffffffffffffffffffffffffffffffffffffffff168152602001908152602001600020600082825403925050819055508181600401600082825403925050819055505b50505050565b60066020528060005260406000206000915054906101000a900473ffffffffffffffffffffffffffffffffffffffff1681565b6005548183011015610eb5576040517f08c379a000000000000000000000000000000000000000000000000000000000815260040180806020018281038252601f8152602001807f4e6f7420656e6f75676820746f6b656e20746f2063726561746520706f6f6c0081525060200191505060405180910390fd5b8373ffffffffffffffffffffffffffffffffffffffff16600760008673ffffffffffffffffffffffffffffffffffffffff1673ffffffffffffffffffffffffffffffffffffffff16815260200190815260200160002060000160009054906101000a900473ffffffffffffffffffffffffffffffffffffffff1673ffffffffffffffffffffffffffffffffffffffff161415610fb9576040517f08c379a00000000000000000000000000000000000000000000000000000000081526004018080602001828103825260188152602001807f506f6f6c20697320616c7265616479206578697374696e67000000000000000081525060200191505060405180910390fd5b8360066000600454815260200190815260200160002060006101000a81548173ffffffffffffffffffffffffffffffffffffffff021916908373ffffffffffffffffffffffffffffffffffffffff1602179055506004600081548092919060010191905055506000600760008673ffffffffffffffffffffffffffffffffffffffff1673ffffffffffffffffffffffffffffffffffffffff16815260200190815260200160002090508381600101908051906020019061107a929190611b9c565b5061108685848461120e565b5050505050565b3373ffffffffffffffffffffffffffffffffffffffff166000809054906101000a900473ffffffffffffffffffffffffffffffffffffffff1673ffffffffffffffffffffffffffffffffffffffff161461114f576040517f08c379a000000000000000000000000000000000000000000000000000000000815260040180806020018281038252601c8152602001807f43616c6c65722063616e206f6e6c7920626520746865206f776e65720000000081525060200191505060405180910390fd5b60008060006101000a81548173ffffffffffffffffffffffffffffffffffffffff021916908373ffffffffffffffffffffffffffffffffffffffff160217905550600073ffffffffffffffffffffffffffffffffffffffff166000809054906101000a900473ffffffffffffffffffffffffffffffffffffffff1673ffffffffffffffffffffffffffffffffffffffff167f8be0079c531659141344cd1fd0a4f28419497f9722a3daafe3b4186f6b6457e060405160405180910390a3565b6000600760008573ffffffffffffffffffffffffffffffffffffffff1673ffffffffffffffffffffffffffffffffffffffff168152602001908152602001600020905061125c828401610615565b828160030160003373ffffffffffffffffffffffffffffffffffffffff1673ffffffffffffffffffffffffffffffffffffffff16815260200190815260200160002060008282540192505081905550828160020160008282540192505081905550818160050160003373ffffffffffffffffffffffffffffffffffffffff1673ffffffffffffffffffffffffffffffffffffffff1681526020019081526020016000206000828254019250508190555081816004016000828254019250508190555050505050565b6000600360009054906101000a900473ffffffffffffffffffffffffffffffffffffffff1673ffffffffffffffffffffffffffffffffffffffff166370a08231600160009054906101000a900473ffffffffffffffffffffffffffffffffffffffff166040518263ffffffff1660e01b8152600401808273ffffffffffffffffffffffffffffffffffffffff1673ffffffffffffffffffffffffffffffffffffffff16815260200191505060206040518083038186803b1580156113e757600080fd5b505afa1580156113fb573d6000803e3d6000fd5b505050506040513d602081101561141157600080fd5b8101908080519060200190929190505050905090565b60008060009054906101000a900473ffffffffffffffffffffffffffffffffffffffff16905090565b60076020528060005260406000206000915090508060000160009054906101000a900473ffffffffffffffffffffffffffffffffffffffff1690806001018054600181600116156101000203166002900480601f0160208091040260200160405190810160405280929190818152602001828054600181600116156101000203166002900480156115225780601f106114f757610100808354040283529160200191611522565b820191906000526020600020905b81548152906001019060200180831161150557829003601f168201915b5050505050908060020154908060040154905084565b6000600360009054906101000a900473ffffffffffffffffffffffffffffffffffffffff1673ffffffffffffffffffffffffffffffffffffffff166370a08231836040518263ffffffff1660e01b8152600401808273ffffffffffffffffffffffffffffffffffffffff1673ffffffffffffffffffffffffffffffffffffffff16815260200191505060206040518083038186803b1580156115d957600080fd5b505afa1580156115ed573d6000803e3d6000fd5b505050506040513d602081101561160357600080fd5b81019080805190602001909291905050509050919050565b3373ffffffffffffffffffffffffffffffffffffffff166000809054906101000a900473ffffffffffffffffffffffffffffffffffffffff1673ffffffffffffffffffffffffffffffffffffffff16146116dd576040517f08c379a000000000000000000000000000000000000000000000000000000000815260040180806020018281038252601c8152602001807f43616c6c65722063616e206f6e6c7920626520746865206f776e65720000000081525060200191505060405180910390fd5b600073ffffffffffffffffffffffffffffffffffffffff168173ffffffffffffffffffffffffffffffffffffffff161415611763576040517f08c379a0000000000000000000000000000000000000000000000000000000008152600401808060200182810382526024815260200180611cbe6024913960400191505060405180910390fd5b8073ffffffffffffffffffffffffffffffffffffffff166000809054906101000a900473ffffffffffffffffffffffffffffffffffffffff1673ffffffffffffffffffffffffffffffffffffffff167f8be0079c531659141344cd1fd0a4f28419497f9722a3daafe3b4186f6b6457e060405160405180910390a3806000806101000a81548173ffffffffffffffffffffffffffffffffffffffff021916908373ffffffffffffffffffffffffffffffffffffffff16021790555050565b3373ffffffffffffffffffffffffffffffffffffffff166000809054906101000a900473ffffffffffffffffffffffffffffffffffffffff1673ffffffffffffffffffffffffffffffffffffffff16146118e3576040517f08c379a000000000000000000000000000000000000000000000000000000000815260040180806020018281038252601c8152602001807f43616c6c65722063616e206f6e6c7920626520746865206f776e65720000000081525060200191505060405180910390fd5b8060058190555050565b80600360009054906101000a900473ffffffffffffffffffffffffffffffffffffffff1673ffffffffffffffffffffffffffffffffffffffff166370a08231600160009054906101000a900473ffffffffffffffffffffffffffffffffffffffff166040518263ffffffff1660e01b8152600401808273ffffffffffffffffffffffffffffffffffffffff1673ffffffffffffffffffffffffffffffffffffffff16815260200191505060206040518083038186803b1580156119af57600080fd5b505afa1580156119c3573d6000803e3d6000fd5b505050506040513d60208110156119d957600080fd5b81019080805190602001909291905050501015611a5e576040517f08c379a00000000000000000000000000000000000000000000000000000000081526004018080602001828103825260178152602001807f42616e6b2062616c616e636520697320746f6f206c6f7700000000000000000081525060200191505060405180910390fd5b600360009054906101000a900473ffffffffffffffffffffffffffffffffffffffff1673ffffffffffffffffffffffffffffffffffffffff166323b872dd600160009054906101000a900473ffffffffffffffffffffffffffffffffffffffff1632846040518463ffffffff1660e01b8152600401808473ffffffffffffffffffffffffffffffffffffffff1673ffffffffffffffffffffffffffffffffffffffff1681526020018373ffffffffffffffffffffffffffffffffffffffff1673ffffffffffffffffffffffffffffffffffffffff1681526020018281526020019350505050602060405180830381600087803b158015611b5d57600080fd5b505af1158015611b71573d6000803e3d6000fd5b505050506040513d6020811015611b8757600080fd5b81019080805190602001909291905050505050565b828054600181600116156101000203166002900490600052602060002090601f016020900481019282601f10611bdd57805160ff1916838001178555611c0b565b82800160010185558215611c0b579182015b82811115611c0a578251825591602001919060010190611bef565b5b509050611c189190611c1c565b5090565b611c3e91905b80821115611c3a576000816000905550600101611c22565b5090565b9056fe5573657220686173206e6f74206265742074686174206d75636820616d6f756e74206f6e206e656761746976655573657220686173206e6f74206265742074686174206d75636820616d6f756e74206f6e20706f736974697665506f6f6c20646f6573206e6f7420657869737420666f72207468697320746f6b656e4e6577206f776e65722063616e6e6f7420626520746865207a65726f2061646472657373a265627a7a72315820aa872a64730dce905812096eb21f9c6ed621dc3638edc7bbcb732b3b29d446c864736f6c63430005100032",
  "source": "pragma solidity 0.5.16;\n\nimport \"./TokenBank.sol\";\n\ncontract Betting is TokenBank {\n\n  /* TODO: \n    - events PoolCreation/Deletion, Bet/Unbet ?\n    - devil advocate\n    - winners vs losers\n  */\n\n  struct Pool {\n    address token;\n    string name;\n    uint256 totalPositiveAmount;\n    mapping(address => uint256) positiveAmounts;\n    uint256 totalNegativeAmount;\n    mapping(address => uint256) negativeAmounts;\n  }\n\n  modifier costs(uint price) {\n    require(msg.value >= price, \"Not enough BNB provided\");\n    _;\n  }\n\n  uint public _poolCount = 0;\n  uint private _poolCreationPrice = 1000 * 10**18;\n  mapping(uint => address) public _poolsIndexes;\n  mapping(address => Pool) public _pools;\n\n  constructor(address tokenAddress, address bankWalletAddress) TokenBank(tokenAddress, bankWalletAddress) public {\n    require(tokenAddress != address(0), \"Token address not set\");\n    require(bankWalletAddress != address(0), \"Bank wallet address not set\");\n  }\n\n  function setPoolCreationPrice(uint256 price) public onlyOwner {\n    _poolCreationPrice = price;\n  }\n\n  function createPool(address token, string memory name, uint256 positiveAmount, uint256 negativeAmount) public {\n    require(positiveAmount + negativeAmount  >= _poolCreationPrice, \"Not enough token to create pool\");\n    require(_pools[token].token != token, \"Pool is already existing\");\n\n    // Only increment pool counter\n    _poolsIndexes[_poolCount] = token;\n    _poolCount++;\n\n    // Create pool\n    Pool storage pool = _pools[token];\n    pool.name = name;\n\n    // Initiate first bet\n    bet(token, positiveAmount, negativeAmount);\n  }\n\n  function bet(address token, uint256 positiveAmount, uint256 negativeAmount) public {\n    Pool storage pool = _pools[token];\n    //require(pool.token == token, \"Pool does not exist for this token\");\n    //require(tokenBalanceOf(msg.sender) >= positiveAmount + negativeAmount, \"Sender balance is less than sum of specified amounts\");\n\n    transferToBankWallet(positiveAmount + negativeAmount);\n\n    pool.positiveAmounts[msg.sender] += positiveAmount;\n    pool.totalPositiveAmount += positiveAmount;\n\n    pool.negativeAmounts[msg.sender] += negativeAmount;\n    pool.totalNegativeAmount += negativeAmount;\n  }\n\n  function unbet(address token, uint256 positiveAmount, uint256 negativeAmount) public {\n    Pool storage pool = _pools[token];\n    require(pool.token == token, \"Pool does not exist for this token\");\n    require(pool.positiveAmounts[msg.sender] >= positiveAmount, \"User has not bet that much amount on positive\");\n    require(pool.negativeAmounts[msg.sender] >= negativeAmount, \"User has not bet that much amount on negative\");\n    //require(tokenBalanceOfBank() >= positiveAmount + negativeAmount, \"Bank balance is less than sum of specified amounts\");\n\n    if(positiveAmount > 0) {\n      transferFromBankWallet(positiveAmount);\n      pool.positiveAmounts[msg.sender] -= positiveAmount;\n      pool.totalPositiveAmount -= positiveAmount;\n    }\n\n    if(negativeAmount > 0) {\n      transferFromBankWallet(negativeAmount);\n      pool.negativeAmounts[msg.sender] -= negativeAmount;\n      pool.totalNegativeAmount -= negativeAmount;\n    }\n  }\n}\n",
  "sourcePath": "D:/Projects/Rivalry/contracts/Betting.sol",
  "compiler": {
    "name": "solc",
    "version": "0.5.16+commit.9c3226ce.Emscripten.clang"
  },
  "schemaVersion": "3.4.1",
  "updatedAt": "2021-06-05T21:24:35.120Z",
  "networkType": "ethereum",
  "devdoc": {
    "methods": {}
  },
  "userdoc": {
    "methods": {}
  }
}