{
  "contractName": "PreSaleContract",
  "abi": [
    {
      "inputs": [
        {
          "internalType": "address",
          "name": "revoTokenAddress",
          "type": "address"
        },
        {
          "internalType": "address",
          "name": "_usdtAddress",
          "type": "address"
        },
        {
          "internalType": "uint256",
          "name": "maxCapRevoInWei",
          "type": "uint256"
        }
      ],
      "payable": false,
      "stateMutability": "nonpayable",
      "type": "constructor"
    },
    {
      "anonymous": false,
      "inputs": [
        {
          "indexed": false,
          "internalType": "uint256",
          "name": "_tokenPurchased",
          "type": "uint256"
        }
      ],
      "name": "BuyTokenEvent",
      "type": "event"
    },
    {
      "anonymous": false,
      "inputs": [
        {
          "indexed": true,
          "internalType": "address",
          "name": "_of",
          "type": "address"
        },
        {
          "indexed": true,
          "internalType": "bytes32",
          "name": "_reason",
          "type": "bytes32"
        },
        {
          "indexed": false,
          "internalType": "uint256",
          "name": "_amount",
          "type": "uint256"
        },
        {
          "indexed": false,
          "internalType": "uint256",
          "name": "_validity",
          "type": "uint256"
        }
      ],
      "name": "Locked",
      "type": "event"
    },
    {
      "anonymous": false,
      "inputs": [
        {
          "indexed": true,
          "internalType": "address",
          "name": "previousOwner",
          "type": "address"
        },
        {
          "indexed": true,
          "internalType": "address",
          "name": "newOwner",
          "type": "address"
        }
      ],
      "name": "OwnershipTransferred",
      "type": "event"
    },
    {
      "anonymous": false,
      "inputs": [
        {
          "indexed": true,
          "internalType": "address",
          "name": "_of",
          "type": "address"
        },
        {
          "indexed": true,
          "internalType": "bytes32",
          "name": "_reason",
          "type": "bytes32"
        },
        {
          "indexed": false,
          "internalType": "uint256",
          "name": "_amount",
          "type": "uint256"
        }
      ],
      "name": "Unlocked",
      "type": "event"
    },
    {
      "constant": true,
      "inputs": [],
      "name": "BASE_PRICE_IN_WEI",
      "outputs": [
        {
          "internalType": "uint256",
          "name": "",
          "type": "uint256"
        }
      ],
      "payable": false,
      "stateMutability": "view",
      "type": "function"
    },
    {
      "constant": true,
      "inputs": [],
      "name": "FOURTEEN_DAYS_IN_SECONDS",
      "outputs": [
        {
          "internalType": "uint256",
          "name": "",
          "type": "uint256"
        }
      ],
      "payable": false,
      "stateMutability": "view",
      "type": "function"
    },
    {
      "constant": true,
      "inputs": [],
      "name": "contributors",
      "outputs": [
        {
          "internalType": "uint256",
          "name": "",
          "type": "uint256"
        }
      ],
      "payable": false,
      "stateMutability": "view",
      "type": "function"
    },
    {
      "constant": true,
      "inputs": [],
      "name": "isListingDone",
      "outputs": [
        {
          "internalType": "bool",
          "name": "",
          "type": "bool"
        }
      ],
      "payable": false,
      "stateMutability": "view",
      "type": "function"
    },
    {
      "constant": true,
      "inputs": [],
      "name": "isWhitelistEnabled",
      "outputs": [
        {
          "internalType": "bool",
          "name": "",
          "type": "bool"
        }
      ],
      "payable": false,
      "stateMutability": "view",
      "type": "function"
    },
    {
      "constant": true,
      "inputs": [
        {
          "internalType": "address",
          "name": "",
          "type": "address"
        },
        {
          "internalType": "uint256",
          "name": "",
          "type": "uint256"
        }
      ],
      "name": "lockReason",
      "outputs": [
        {
          "internalType": "bytes32",
          "name": "",
          "type": "bytes32"
        }
      ],
      "payable": false,
      "stateMutability": "view",
      "type": "function"
    },
    {
      "constant": true,
      "inputs": [
        {
          "internalType": "address",
          "name": "",
          "type": "address"
        },
        {
          "internalType": "bytes32",
          "name": "",
          "type": "bytes32"
        }
      ],
      "name": "locked",
      "outputs": [
        {
          "internalType": "uint256",
          "name": "amount",
          "type": "uint256"
        },
        {
          "internalType": "uint256",
          "name": "validity",
          "type": "uint256"
        },
        {
          "internalType": "bool",
          "name": "claimed",
          "type": "bool"
        }
      ],
      "payable": false,
      "stateMutability": "view",
      "type": "function"
    },
    {
      "constant": true,
      "inputs": [],
      "name": "maxDefaultUsdtETH",
      "outputs": [
        {
          "internalType": "uint256",
          "name": "",
          "type": "uint256"
        }
      ],
      "payable": false,
      "stateMutability": "view",
      "type": "function"
    },
    {
      "constant": true,
      "inputs": [],
      "name": "minWeiPurchasable",
      "outputs": [
        {
          "internalType": "uint256",
          "name": "",
          "type": "uint256"
        }
      ],
      "payable": false,
      "stateMutability": "view",
      "type": "function"
    },
    {
      "constant": true,
      "inputs": [],
      "name": "owner",
      "outputs": [
        {
          "internalType": "address",
          "name": "",
          "type": "address"
        }
      ],
      "payable": false,
      "stateMutability": "view",
      "type": "function"
    },
    {
      "constant": false,
      "inputs": [],
      "name": "renounceOwnership",
      "outputs": [],
      "payable": false,
      "stateMutability": "nonpayable",
      "type": "function"
    },
    {
      "constant": true,
      "inputs": [],
      "name": "revoAddress",
      "outputs": [
        {
          "internalType": "address",
          "name": "",
          "type": "address"
        }
      ],
      "payable": false,
      "stateMutability": "view",
      "type": "function"
    },
    {
      "constant": true,
      "inputs": [
        {
          "internalType": "address",
          "name": "",
          "type": "address"
        }
      ],
      "name": "salesDonePerUser",
      "outputs": [
        {
          "internalType": "bool",
          "name": "",
          "type": "bool"
        }
      ],
      "payable": false,
      "stateMutability": "view",
      "type": "function"
    },
    {
      "constant": true,
      "inputs": [],
      "name": "started",
      "outputs": [
        {
          "internalType": "bool",
          "name": "",
          "type": "bool"
        }
      ],
      "payable": false,
      "stateMutability": "view",
      "type": "function"
    },
    {
      "constant": true,
      "inputs": [],
      "name": "tokenCapRevoInWei",
      "outputs": [
        {
          "internalType": "uint256",
          "name": "",
          "type": "uint256"
        }
      ],
      "payable": false,
      "stateMutability": "view",
      "type": "function"
    },
    {
      "constant": true,
      "inputs": [],
      "name": "tokenPurchaseInWei",
      "outputs": [
        {
          "internalType": "uint256",
          "name": "",
          "type": "uint256"
        }
      ],
      "payable": false,
      "stateMutability": "view",
      "type": "function"
    },
    {
      "constant": false,
      "inputs": [
        {
          "internalType": "address",
          "name": "newOwner",
          "type": "address"
        }
      ],
      "name": "transferOwnership",
      "outputs": [],
      "payable": false,
      "stateMutability": "nonpayable",
      "type": "function"
    },
    {
      "constant": true,
      "inputs": [],
      "name": "usdtAddress",
      "outputs": [
        {
          "internalType": "address",
          "name": "",
          "type": "address"
        }
      ],
      "payable": false,
      "stateMutability": "view",
      "type": "function"
    },
    {
      "constant": true,
      "inputs": [],
      "name": "vestingStartTime",
      "outputs": [
        {
          "internalType": "uint256",
          "name": "",
          "type": "uint256"
        }
      ],
      "payable": false,
      "stateMutability": "view",
      "type": "function"
    },
    {
      "constant": true,
      "inputs": [
        {
          "internalType": "address",
          "name": "",
          "type": "address"
        }
      ],
      "name": "whitelistedAddresses",
      "outputs": [
        {
          "internalType": "bool",
          "name": "",
          "type": "bool"
        }
      ],
      "payable": false,
      "stateMutability": "view",
      "type": "function"
    },
    {
      "constant": true,
      "inputs": [
        {
          "internalType": "address",
          "name": "",
          "type": "address"
        }
      ],
      "name": "whitelistedAddressesCap",
      "outputs": [
        {
          "internalType": "uint256",
          "name": "",
          "type": "uint256"
        }
      ],
      "payable": false,
      "stateMutability": "view",
      "type": "function"
    },
    {
      "constant": false,
      "inputs": [
        {
          "internalType": "uint256",
          "name": "amountUSDTInWei",
          "type": "uint256"
        }
      ],
      "name": "buyTokens",
      "outputs": [],
      "payable": true,
      "stateMutability": "payable",
      "type": "function"
    },
    {
      "constant": false,
      "inputs": [],
      "name": "enableWhitelistVerification",
      "outputs": [],
      "payable": false,
      "stateMutability": "nonpayable",
      "type": "function"
    },
    {
      "constant": false,
      "inputs": [],
      "name": "disableWhitelistVerification",
      "outputs": [],
      "payable": false,
      "stateMutability": "nonpayable",
      "type": "function"
    },
    {
      "constant": false,
      "inputs": [
        {
          "internalType": "uint256",
          "name": "value",
          "type": "uint256"
        }
      ],
      "name": "changeMinWeiPurchasable",
      "outputs": [],
      "payable": false,
      "stateMutability": "nonpayable",
      "type": "function"
    },
    {
      "constant": false,
      "inputs": [
        {
          "internalType": "bool",
          "name": "value",
          "type": "bool"
        }
      ],
      "name": "changeStartedState",
      "outputs": [],
      "payable": false,
      "stateMutability": "nonpayable",
      "type": "function"
    },
    {
      "constant": false,
      "inputs": [
        {
          "internalType": "address[]",
          "name": "_addresses",
          "type": "address[]"
        },
        {
          "internalType": "uint256[]",
          "name": "_maxCaps",
          "type": "uint256[]"
        }
      ],
      "name": "addToWhitelistPartners",
      "outputs": [],
      "payable": false,
      "stateMutability": "nonpayable",
      "type": "function"
    },
    {
      "constant": false,
      "inputs": [
        {
          "internalType": "address",
          "name": "_address",
          "type": "address"
        },
        {
          "internalType": "uint256",
          "name": "_maxCap",
          "type": "uint256"
        }
      ],
      "name": "updateWhitelistAdressCap",
      "outputs": [],
      "payable": false,
      "stateMutability": "nonpayable",
      "type": "function"
    },
    {
      "constant": false,
      "inputs": [
        {
          "internalType": "address[]",
          "name": "addresses",
          "type": "address[]"
        }
      ],
      "name": "addToWhitelist",
      "outputs": [],
      "payable": false,
      "stateMutability": "nonpayable",
      "type": "function"
    },
    {
      "constant": false,
      "inputs": [
        {
          "internalType": "address",
          "name": "_address",
          "type": "address"
        }
      ],
      "name": "addToWhitelist",
      "outputs": [],
      "payable": false,
      "stateMutability": "nonpayable",
      "type": "function"
    },
    {
      "constant": true,
      "inputs": [
        {
          "internalType": "address",
          "name": "_address",
          "type": "address"
        }
      ],
      "name": "isAddressWhitelisted",
      "outputs": [
        {
          "internalType": "bool",
          "name": "",
          "type": "bool"
        }
      ],
      "payable": false,
      "stateMutability": "view",
      "type": "function"
    },
    {
      "constant": false,
      "inputs": [
        {
          "internalType": "uint256",
          "name": "amount",
          "type": "uint256"
        }
      ],
      "name": "withdrawTokens",
      "outputs": [],
      "payable": false,
      "stateMutability": "nonpayable",
      "type": "function"
    },
    {
      "constant": false,
      "inputs": [
        {
          "internalType": "bool",
          "name": "isDone",
          "type": "bool"
        }
      ],
      "name": "setListingDone",
      "outputs": [],
      "payable": false,
      "stateMutability": "nonpayable",
      "type": "function"
    },
    {
      "constant": false,
      "inputs": [
        {
          "internalType": "address",
          "name": "_usdtAddress",
          "type": "address"
        }
      ],
      "name": "setUSDTAddress",
      "outputs": [],
      "payable": false,
      "stateMutability": "nonpayable",
      "type": "function"
    },
    {
      "constant": false,
      "inputs": [
        {
          "internalType": "address",
          "name": "_revoAddress",
          "type": "address"
        }
      ],
      "name": "setRevoAddress",
      "outputs": [],
      "payable": false,
      "stateMutability": "nonpayable",
      "type": "function"
    },
    {
      "constant": false,
      "inputs": [
        {
          "internalType": "uint256",
          "name": "_maxDefaultUsdtETH",
          "type": "uint256"
        }
      ],
      "name": "setMaxDefaultUsdtAllocInEth",
      "outputs": [],
      "payable": false,
      "stateMutability": "nonpayable",
      "type": "function"
    },
    {
      "constant": false,
      "inputs": [
        {
          "internalType": "uint256",
          "name": "_tokenCapRevoInWei",
          "type": "uint256"
        }
      ],
      "name": "setTokenCapInWei",
      "outputs": [],
      "payable": false,
      "stateMutability": "nonpayable",
      "type": "function"
    },
    {
      "constant": true,
      "inputs": [
        {
          "internalType": "address",
          "name": "_of",
          "type": "address"
        },
        {
          "internalType": "string",
          "name": "_reason",
          "type": "string"
        }
      ],
      "name": "tokensLocked",
      "outputs": [
        {
          "internalType": "uint256",
          "name": "amount",
          "type": "uint256"
        }
      ],
      "payable": false,
      "stateMutability": "view",
      "type": "function"
    },
    {
      "constant": true,
      "inputs": [
        {
          "internalType": "address",
          "name": "_of",
          "type": "address"
        }
      ],
      "name": "totalBalanceOf",
      "outputs": [
        {
          "internalType": "uint256",
          "name": "amount",
          "type": "uint256"
        }
      ],
      "payable": false,
      "stateMutability": "view",
      "type": "function"
    },
    {
      "constant": true,
      "inputs": [
        {
          "internalType": "address",
          "name": "_of",
          "type": "address"
        },
        {
          "internalType": "string",
          "name": "_reason",
          "type": "string"
        }
      ],
      "name": "tokensUnlockable",
      "outputs": [
        {
          "internalType": "uint256",
          "name": "amount",
          "type": "uint256"
        }
      ],
      "payable": false,
      "stateMutability": "view",
      "type": "function"
    },
    {
      "constant": false,
      "inputs": [],
      "name": "unlock",
      "outputs": [
        {
          "internalType": "uint256",
          "name": "unlockableTokens",
          "type": "uint256"
        }
      ],
      "payable": false,
      "stateMutability": "nonpayable",
      "type": "function"
    },
    {
      "constant": true,
      "inputs": [
        {
          "internalType": "address",
          "name": "_of",
          "type": "address"
        }
      ],
      "name": "getUnlockableTokens",
      "outputs": [
        {
          "internalType": "uint256",
          "name": "unlockableTokens",
          "type": "uint256"
        }
      ],
      "payable": false,
      "stateMutability": "view",
      "type": "function"
    },
    {
      "constant": true,
      "inputs": [
        {
          "internalType": "address",
          "name": "_of",
          "type": "address"
        },
        {
          "internalType": "string",
          "name": "_reason",
          "type": "string"
        }
      ],
      "name": "getremainingLockTime",
      "outputs": [
        {
          "internalType": "uint256",
          "name": "remainingTime",
          "type": "uint256"
        }
      ],
      "payable": false,
      "stateMutability": "view",
      "type": "function"
    },
    {
      "constant": true,
      "inputs": [
        {
          "internalType": "address",
          "name": "_of",
          "type": "address"
        },
        {
          "internalType": "string",
          "name": "_reason",
          "type": "string"
        }
      ],
      "name": "getremainingLockDays",
      "outputs": [
        {
          "internalType": "uint256",
          "name": "remainingDays",
          "type": "uint256"
        }
      ],
      "payable": false,
      "stateMutability": "view",
      "type": "function"
    },
    {
      "constant": true,
      "inputs": [
        {
          "internalType": "string",
          "name": "source",
          "type": "string"
        }
      ],
      "name": "stringToBytes32",
      "outputs": [
        {
          "internalType": "bytes32",
          "name": "result",
          "type": "bytes32"
        }
      ],
      "payable": false,
      "stateMutability": "pure",
      "type": "function"
    },
    {
      "constant": true,
      "inputs": [
        {
          "internalType": "bytes32",
          "name": "x",
          "type": "bytes32"
        }
      ],
      "name": "bytes32ToString",
      "outputs": [
        {
          "internalType": "string",
          "name": "",
          "type": "string"
        }
      ],
      "payable": false,
      "stateMutability": "pure",
      "type": "function"
    },
    {
      "constant": true,
      "inputs": [
        {
          "internalType": "uint256",
          "name": "amount",
          "type": "uint256"
        },
        {
          "internalType": "uint256",
          "name": "percentage",
          "type": "uint256"
        },
        {
          "internalType": "uint256",
          "name": "precision",
          "type": "uint256"
        }
      ],
      "name": "calculatePercentage",
      "outputs": [
        {
          "internalType": "uint256",
          "name": "",
          "type": "uint256"
        }
      ],
      "payable": false,
      "stateMutability": "pure",
      "type": "function"
    }
  ],
  "bytecode": "0x60806040526001600360016101000a81548160ff0219169083151502179055506001600360026101000a81548160ff021916908315150217905550682b5e3af16b188000006007556113886008556360748aa0600a553480156200006257600080fd5b5060405162004b0f38038062004b0f833981810160405260608110156200008857600080fd5b81019080805190602001909291908051906020019092919080519060200190929190505050336000806101000a81548173ffffffffffffffffffffffffffffffffffffffff021916908373ffffffffffffffffffffffffffffffffffffffff1602179055506000809054906101000a900473ffffffffffffffffffffffffffffffffffffffff1673ffffffffffffffffffffffffffffffffffffffff16600073ffffffffffffffffffffffffffffffffffffffff167f8be0079c531659141344cd1fd0a4f28419497f9722a3daafe3b4186f6b6457e060405160405180910390a36200017a82620001a560201b60201c565b6200018b83620002ed60201b60201c565b6200019c816200043560201b60201c565b50505062000502565b3373ffffffffffffffffffffffffffffffffffffffff166000809054906101000a900473ffffffffffffffffffffffffffffffffffffffff1673ffffffffffffffffffffffffffffffffffffffff161462000268576040517f08c379a000000000000000000000000000000000000000000000000000000000815260040180806020018281038252601c8152602001807f43616c6c65722063616e206f6e6c7920626520746865206f776e65720000000081525060200191505060405180910390fd5b80600b60006101000a81548173ffffffffffffffffffffffffffffffffffffffff021916908373ffffffffffffffffffffffffffffffffffffffff16021790555080600e60006101000a81548173ffffffffffffffffffffffffffffffffffffffff021916908373ffffffffffffffffffffffffffffffffffffffff16021790555050565b3373ffffffffffffffffffffffffffffffffffffffff166000809054906101000a900473ffffffffffffffffffffffffffffffffffffffff1673ffffffffffffffffffffffffffffffffffffffff1614620003b0576040517f08c379a000000000000000000000000000000000000000000000000000000000815260040180806020018281038252601c8152602001807f43616c6c65722063616e206f6e6c7920626520746865206f776e65720000000081525060200191505060405180910390fd5b80600c60006101000a81548173ffffffffffffffffffffffffffffffffffffffff021916908373ffffffffffffffffffffffffffffffffffffffff16021790555080600d60006101000a81548173ffffffffffffffffffffffffffffffffffffffff021916908373ffffffffffffffffffffffffffffffffffffffff16021790555050565b3373ffffffffffffffffffffffffffffffffffffffff166000809054906101000a900473ffffffffffffffffffffffffffffffffffffffff1673ffffffffffffffffffffffffffffffffffffffff1614620004f8576040517f08c379a000000000000000000000000000000000000000000000000000000000815260040180806020018281038252601c8152602001807f43616c6c65722063616e206f6e6c7920626520746865206f776e65720000000081525060200191505060405180910390fd5b8060098190555050565b6145fd80620005126000396000f3fe6080604052600436106102885760003560e01c8063715018a61161015a578063a69df4b5116100c1578063c9e726581161007a578063c9e726581461114f578063cfb519281461117a578063d71be8db14611256578063dc369cec146112d7578063e43252d7146113d3578063f2fde38b1461142457610288565b8063a69df4b514610fc7578063a8660a7814610ff2578063ab4a2eb31461101d578063b00ba68914611082578063bbb99ef5146110d9578063c891d9481461111457610288565b80638d7da247116101135780638d7da24714610d015780638da5cb5b14610d3e5780639201de5514610d9557806393080d4a14610e495780639ab4a44514610e745780639c26469414610ecb57610288565b8063715018a614610b4557806371d66f0014610b5c5780637298c20014610bcb5780637f55e44414610bfa5780637f64978314610c1157806388c8fdc014610cd657610288565b8063315a095d116101fe57806355658688116101b7578063556586881461090a57806355eba8681461094757806366959491146109985780636897b84c14610a945780636abcf61a14610aef5780636e7e3b2b14610b1a57610288565b8063315a095d1461061b57806332391406146106565780633275a7b6146106bb5780633610724e1461071e5780634b0ee02a1461074c5780634eb70733146107b157610288565b806312e357201161025057806312e35720146103f057806313f44d1014610407578063184d69ab146104705780631c682d681461049f5780631f2698ab146104f057806320f14e791461051f57610288565b806302792b2d1461028d57806305bd3dd1146102f657806306c933d81461032157806309ad9dd31461038a57806310735d6b146103b5575b600080fd5b34801561029957600080fd5b506102dc600480360360208110156102b057600080fd5b81019080803573ffffffffffffffffffffffffffffffffffffffff169060200190929190505050611475565b604051808215151515815260200191505060405180910390f35b34801561030257600080fd5b5061030b611495565b6040518082815260200191505060405180910390f35b34801561032d57600080fd5b506103706004803603602081101561034457600080fd5b81019080803573ffffffffffffffffffffffffffffffffffffffff16906020019092919050505061149b565b604051808215151515815260200191505060405180910390f35b34801561039657600080fd5b5061039f6114bb565b6040518082815260200191505060405180910390f35b3480156103c157600080fd5b506103ee600480360360208110156103d857600080fd5b81019080803590602001909291905050506114c7565b005b3480156103fc57600080fd5b50610405611593565b005b34801561041357600080fd5b506104566004803603602081101561042a57600080fd5b81019080803573ffffffffffffffffffffffffffffffffffffffff169060200190929190505050611672565b604051808215151515815260200191505060405180910390f35b34801561047c57600080fd5b506104856116e7565b604051808215151515815260200191505060405180910390f35b3480156104ab57600080fd5b506104ee600480360360208110156104c257600080fd5b81019080803573ffffffffffffffffffffffffffffffffffffffff1690602001909291905050506116fa565b005b3480156104fc57600080fd5b50610505611841565b604051808215151515815260200191505060405180910390f35b34801561052b57600080fd5b506106056004803603604081101561054257600080fd5b81019080803573ffffffffffffffffffffffffffffffffffffffff1690602001909291908035906020019064010000000081111561057f57600080fd5b82018360208201111561059157600080fd5b803590602001918460018302840111640100000000831117156105b357600080fd5b91908080601f016020809104026020016040519081016040528093929190818152602001838380828437600081840152601f19601f820116905080830192505050505050509192919290505050611854565b6040518082815260200191505060405180910390f35b34801561062757600080fd5b506106546004803603602081101561063e57600080fd5b8101908080359060200190929190505050611986565b005b34801561066257600080fd5b506106a56004803603602081101561067957600080fd5b81019080803573ffffffffffffffffffffffffffffffffffffffff169060200190929190505050611b37565b6040518082815260200191505060405180910390f35b3480156106c757600080fd5b50610708600480360360608110156106de57600080fd5b81019080803590602001909291908035906020019092919080359060200190929190505050611b4f565b6040518082815260200191505060405180910390f35b61074a6004803603602081101561073457600080fd5b8101908080359060200190929190505050611ba4565b005b34801561075857600080fd5b5061079b6004803603602081101561076f57600080fd5b81019080803573ffffffffffffffffffffffffffffffffffffffff1690602001909291905050506122c8565b6040518082815260200191505060405180910390f35b3480156107bd57600080fd5b50610908600480360360408110156107d457600080fd5b81019080803590602001906401000000008111156107f157600080fd5b82018360208201111561080357600080fd5b8035906020019184602083028401116401000000008311171561082557600080fd5b919080806020026020016040519081016040528093929190818152602001838360200280828437600081840152601f19601f8201169050808301925050505050505091929192908035906020019064010000000081111561088557600080fd5b82018360208201111561089757600080fd5b803590602001918460208302840111640100000000831117156108b957600080fd5b919080806020026020016040519081016040528093929190818152602001838360200280828437600081840152601f19601f820116905080830192505050505050509192919290505050612483565b005b34801561091657600080fd5b506109456004803603602081101561092d57600080fd5b81019080803515159060200190929190505050612601565b005b34801561095357600080fd5b506109966004803603602081101561096a57600080fd5b81019080803573ffffffffffffffffffffffffffffffffffffffff1690602001909291905050506126e0565b005b3480156109a457600080fd5b50610a7e600480360360408110156109bb57600080fd5b81019080803573ffffffffffffffffffffffffffffffffffffffff169060200190929190803590602001906401000000008111156109f857600080fd5b820183602082011115610a0a57600080fd5b80359060200191846001830284011164010000000083111715610a2c57600080fd5b91908080601f016020809104026020016040519081016040528093929190818152602001838380828437600081840152601f19601f820116905080830192505050505050509192919290505050612827565b6040518082815260200191505060405180910390f35b348015610aa057600080fd5b50610aed60048036036040811015610ab757600080fd5b81019080803573ffffffffffffffffffffffffffffffffffffffff16906020019092919080359060200190929190505050612976565b005b348015610afb57600080fd5b50610b04612a80565b6040518082815260200191505060405180910390f35b348015610b2657600080fd5b50610b2f612a86565b6040518082815260200191505060405180910390f35b348015610b5157600080fd5b50610b5a612a8c565b005b348015610b6857600080fd5b50610bb560048036036040811015610b7f57600080fd5b81019080803573ffffffffffffffffffffffffffffffffffffffff16906020019092919080359060200190929190505050612c0d565b6040518082815260200191505060405180910390f35b348015610bd757600080fd5b50610be0612c3b565b604051808215151515815260200191505060405180910390f35b348015610c0657600080fd5b50610c0f612c4e565b005b348015610c1d57600080fd5b50610cd460048036036020811015610c3457600080fd5b8101908080359060200190640100000000811115610c5157600080fd5b820183602082011115610c6357600080fd5b80359060200191846020830284011164010000000083111715610c8557600080fd5b919080806020026020016040519081016040528093929190818152602001838360200280828437600081840152601f19601f820116905080830192505050505050509192919290505050612d2d565b005b348015610ce257600080fd5b50610ceb612e2b565b6040518082815260200191505060405180910390f35b348015610d0d57600080fd5b50610d3c60048036036020811015610d2457600080fd5b81019080803515159060200190929190505050612e31565b005b348015610d4a57600080fd5b50610d53612f10565b604051808273ffffffffffffffffffffffffffffffffffffffff1673ffffffffffffffffffffffffffffffffffffffff16815260200191505060405180910390f35b348015610da157600080fd5b50610dce60048036036020811015610db857600080fd5b8101908080359060200190929190505050612f39565b6040518080602001828103825283818151815260200191508051906020019080838360005b83811015610e0e578082015181840152602081019050610df3565b50505050905090810190601f168015610e3b5780820380516001836020036101000a031916815260200191505b509250505060405180910390f35b348015610e5557600080fd5b50610e5e6130cc565b6040518082815260200191505060405180910390f35b348015610e8057600080fd5b50610e896130d3565b604051808273ffffffffffffffffffffffffffffffffffffffff1673ffffffffffffffffffffffffffffffffffffffff16815260200191505060405180910390f35b348015610ed757600080fd5b50610fb160048036036040811015610eee57600080fd5b81019080803573ffffffffffffffffffffffffffffffffffffffff16906020019092919080359060200190640100000000811115610f2b57600080fd5b820183602082011115610f3d57600080fd5b80359060200191846001830284011164010000000083111715610f5f57600080fd5b91908080601f016020809104026020016040519081016040528093929190818152602001838380828437600081840152601f19601f8201169050808301925050505050505091929192905050506130f9565b6040518082815260200191505060405180910390f35b348015610fd357600080fd5b50610fdc61323c565b6040518082815260200191505060405180910390f35b348015610ffe57600080fd5b506110076135fd565b6040518082815260200191505060405180910390f35b34801561102957600080fd5b5061106c6004803603602081101561104057600080fd5b81019080803573ffffffffffffffffffffffffffffffffffffffff169060200190929190505050613603565b6040518082815260200191505060405180910390f35b34801561108e57600080fd5b506110976136e2565b604051808273ffffffffffffffffffffffffffffffffffffffff1673ffffffffffffffffffffffffffffffffffffffff16815260200191505060405180910390f35b3480156110e557600080fd5b50611112600480360360208110156110fc57600080fd5b8101908080359060200190929190505050613708565b005b34801561112057600080fd5b5061114d6004803603602081101561113757600080fd5b81019080803590602001909291905050506137d4565b005b34801561115b57600080fd5b506111646138a0565b6040518082815260200191505060405180910390f35b34801561118657600080fd5b506112406004803603602081101561119d57600080fd5b81019080803590602001906401000000008111156111ba57600080fd5b8201836020820111156111cc57600080fd5b803590602001918460018302840111640100000000831117156111ee57600080fd5b91908080601f016020809104026020016040519081016040528093929190818152602001838380828437600081840152601f19601f8201169050808301925050505050505091929192905050506138a6565b6040518082815260200191505060405180910390f35b34801561126257600080fd5b506112af6004803603604081101561127957600080fd5b81019080803573ffffffffffffffffffffffffffffffffffffffff169060200190929190803590602001909291905050506138d1565b6040518084815260200183815260200182151515158152602001935050505060405180910390f35b3480156112e357600080fd5b506113bd600480360360408110156112fa57600080fd5b81019080803573ffffffffffffffffffffffffffffffffffffffff1690602001909291908035906020019064010000000081111561133757600080fd5b82018360208201111561134957600080fd5b8035906020019184600183028401116401000000008311171561136b57600080fd5b91908080601f016020809104026020016040519081016040528093929190818152602001838380828437600081840152601f19601f820116905080830192505050505050509192919290505050613915565b6040518082815260200191505060405180910390f35b3480156113df57600080fd5b50611422600480360360208110156113f657600080fd5b81019080803573ffffffffffffffffffffffffffffffffffffffff1690602001909291905050506139e6565b005b34801561143057600080fd5b506114736004803603602081101561144757600080fd5b81019080803573ffffffffffffffffffffffffffffffffffffffff169060200190929190505050613b49565b005b60066020528060005260406000206000915054906101000a900460ff1681565b60075481565b60046020528060005260406000206000915054906101000a900460ff1681565b670186cc6acd4b000081565b3373ffffffffffffffffffffffffffffffffffffffff166000809054906101000a900473ffffffffffffffffffffffffffffffffffffffff1673ffffffffffffffffffffffffffffffffffffffff1614611589576040517f08c379a000000000000000000000000000000000000000000000000000000000815260040180806020018281038252601c8152602001807f43616c6c65722063616e206f6e6c7920626520746865206f776e65720000000081525060200191505060405180910390fd5b8060078190555050565b3373ffffffffffffffffffffffffffffffffffffffff166000809054906101000a900473ffffffffffffffffffffffffffffffffffffffff1673ffffffffffffffffffffffffffffffffffffffff1614611655576040517f08c379a000000000000000000000000000000000000000000000000000000000815260040180806020018281038252601c8152602001807f43616c6c65722063616e206f6e6c7920626520746865206f776e65720000000081525060200191505060405180910390fd5b6000600360016101000a81548160ff021916908315150217905550565b6000600360019054906101000a900460ff1615806116e0575060011515600460008473ffffffffffffffffffffffffffffffffffffffff1673ffffffffffffffffffffffffffffffffffffffff16815260200190815260200160002060009054906101000a900460ff161515145b9050919050565b600360019054906101000a900460ff1681565b3373ffffffffffffffffffffffffffffffffffffffff166000809054906101000a900473ffffffffffffffffffffffffffffffffffffffff1673ffffffffffffffffffffffffffffffffffffffff16146117bc576040517f08c379a000000000000000000000000000000000000000000000000000000000815260040180806020018281038252601c8152602001807f43616c6c65722063616e206f6e6c7920626520746865206f776e65720000000081525060200191505060405180910390fd5b80600c60006101000a81548173ffffffffffffffffffffffffffffffffffffffff021916908373ffffffffffffffffffffffffffffffffffffffff16021790555080600d60006101000a81548173ffffffffffffffffffffffffffffffffffffffff021916908373ffffffffffffffffffffffffffffffffffffffff16021790555050565b600360029054906101000a900460ff1681565b600080611860836138a6565b905042601060008673ffffffffffffffffffffffffffffffffffffffff1673ffffffffffffffffffffffffffffffffffffffff168152602001908152602001600020600083815260200190815260200160002060010154111580156119235750601060008573ffffffffffffffffffffffffffffffffffffffff1673ffffffffffffffffffffffffffffffffffffffff168152602001908152602001600020600082815260200190815260200160002060020160009054906101000a900460ff16155b1561197f57601060008573ffffffffffffffffffffffffffffffffffffffff1673ffffffffffffffffffffffffffffffffffffffff16815260200190815260200160002060008281526020019081526020016000206000015491505b5092915050565b3373ffffffffffffffffffffffffffffffffffffffff166000809054906101000a900473ffffffffffffffffffffffffffffffffffffffff1673ffffffffffffffffffffffffffffffffffffffff1614611a48576040517f08c379a000000000000000000000000000000000000000000000000000000000815260040180806020018281038252601c8152602001807f43616c6c65722063616e206f6e6c7920626520746865206f776e65720000000081525060200191505060405180910390fd5b600d60009054906101000a900473ffffffffffffffffffffffffffffffffffffffff1673ffffffffffffffffffffffffffffffffffffffff1663a9059cbb611a8e612f10565b836040518363ffffffff1660e01b8152600401808373ffffffffffffffffffffffffffffffffffffffff1673ffffffffffffffffffffffffffffffffffffffff16815260200182815260200192505050602060405180830381600087803b158015611af857600080fd5b505af1158015611b0c573d6000803e3d6000fd5b505050506040513d6020811015611b2257600080fd5b81019080805190602001909291905050505050565b60056020528060005260406000206000915090505481565b6000611b9b82611b8d6064611b7f87611b71888b613d4f90919063ffffffff16565b613d4f90919063ffffffff16565b613dd590919063ffffffff16565b613dd590919063ffffffff16565b90509392505050565b80600360029054906101000a900460ff16611c27576040517f08c379a00000000000000000000000000000000000000000000000000000000081526004018080602001828103825260158152602001807f5072652d73616c65206e6f7420737461727465642e000000000000000000000081525060200191505060405180910390fd5b600360019054906101000a900460ff161580611c93575060011515600460003373ffffffffffffffffffffffffffffffffffffffff1673ffffffffffffffffffffffffffffffffffffffff16815260200190815260200160002060009054906101000a900460ff161515145b611d05576040517f08c379a00000000000000000000000000000000000000000000000000000000081526004018080602001828103825260108152602001807f4e6f742077686974656c69737465642e0000000000000000000000000000000081525060200191505060405180910390fd5b600754811015611d7d576040517f08c379a00000000000000000000000000000000000000000000000000000000081526004018080602001828103825260188152602001807f42656c6f77206d696e20707269636520616c6c6f7765642e000000000000000081525060200191505060405180910390fd5b611dd7670de0b6b3a7640000600560003373ffffffffffffffffffffffffffffffffffffffff1673ffffffffffffffffffffffffffffffffffffffff16815260200190815260200160002054613d4f90919063ffffffff16565b811115611e4c576040517f08c379a00000000000000000000000000000000000000000000000000000000081526004018080602001828103825260188152602001807f41626f7665206d617820707269636520616c6c6f7765642e000000000000000081525060200191505060405180910390fd5b60001515600660003373ffffffffffffffffffffffffffffffffffffffff1673ffffffffffffffffffffffffffffffffffffffff16815260200190815260200160002060009054906101000a900460ff16151514611ef5576040517f08c379a00000000000000000000000000000000000000000000000000000000081526004018080602001828103825260218152602001806145846021913960400191505060405180910390fd5b6001600660003373ffffffffffffffffffffffffffffffffffffffff1673ffffffffffffffffffffffffffffffffffffffff16815260200190815260200160002060006101000a81548160ff0219169083151502179055506000611f84670186cc6acd4b0000611f76670de0b6b3a764000086613d4f90919063ffffffff16565b613dd590919063ffffffff16565b9050611f9b81600154613e1f90919063ffffffff16565b600181905550600954600154111561201b576040517f08c379a000000000000000000000000000000000000000000000000000000000815260040180806020018281038252601a8152602001807f4e6f7420656e6f75676820746f6b656e20666f722073616c652e00000000000081525060200191505060405180910390fd5b6120316001600254613e1f90919063ffffffff16565b60028190555061204083613ea7565b6000612051826014620f4240611b4f565b90506120946040518060400160405280600681526020017f6c6f636b5f310000000000000000000000000000000000000000000000000000815250826000613fca565b506121116040518060400160405280600681526020017f6c6f636b5f3200000000000000000000000000000000000000000000000000008152508261210c6120e9600162127500613d4f90919063ffffffff16565b6120fe42600a5461439290919063ffffffff16565b613e1f90919063ffffffff16565b613fca565b5061218e6040518060400160405280600681526020017f6c6f636b5f33000000000000000000000000000000000000000000000000000081525082612189612166600262127500613d4f90919063ffffffff16565b61217b42600a5461439290919063ffffffff16565b613e1f90919063ffffffff16565b613fca565b5061220b6040518060400160405280600681526020017f6c6f636b5f340000000000000000000000000000000000000000000000000000815250826122066121e3600362127500613d4f90919063ffffffff16565b6121f842600a5461439290919063ffffffff16565b613e1f90919063ffffffff16565b613fca565b506122886040518060400160405280600681526020017f6c6f636b5f35000000000000000000000000000000000000000000000000000081525082612283612260600462127500613d4f90919063ffffffff16565b61227542600a5461439290919063ffffffff16565b613e1f90919063ffffffff16565b613fca565b507f21af47c5288c835c1d0b4d530d4031534309d7f8888bb1cc7658429addc36a896001546040518082815260200191505060405180910390a150505050565b6000600d60009054906101000a900473ffffffffffffffffffffffffffffffffffffffff1673ffffffffffffffffffffffffffffffffffffffff166370a08231836040518263ffffffff1660e01b8152600401808273ffffffffffffffffffffffffffffffffffffffff1673ffffffffffffffffffffffffffffffffffffffff16815260200191505060206040518083038186803b15801561236957600080fd5b505afa15801561237d573d6000803e3d6000fd5b505050506040513d602081101561239357600080fd5b8101908080519060200190929190505050905060008090505b600f60008473ffffffffffffffffffffffffffffffffffffffff1673ffffffffffffffffffffffffffffffffffffffff1681526020019081526020016000208054905081101561247d5761246e61245f8461245a600f60008873ffffffffffffffffffffffffffffffffffffffff1673ffffffffffffffffffffffffffffffffffffffff168152602001908152602001600020858154811061244a57fe5b9060005260206000200154612f39565b613915565b83613e1f90919063ffffffff16565b915080806001019150506123ac565b50919050565b3373ffffffffffffffffffffffffffffffffffffffff166000809054906101000a900473ffffffffffffffffffffffffffffffffffffffff1673ffffffffffffffffffffffffffffffffffffffff1614612545576040517f08c379a000000000000000000000000000000000000000000000000000000000815260040180806020018281038252601c8152602001807f43616c6c65722063616e206f6e6c7920626520746865206f776e65720000000081525060200191505060405180910390fd5b60008090505b82518110156125fc5760016004600085848151811061256657fe5b602002602001015173ffffffffffffffffffffffffffffffffffffffff1673ffffffffffffffffffffffffffffffffffffffff16815260200190815260200160002060006101000a81548160ff0219169083151502179055506125ef8382815181106125ce57fe5b60200260200101518383815181106125e257fe5b6020026020010151612976565b808060010191505061254b565b505050565b3373ffffffffffffffffffffffffffffffffffffffff166000809054906101000a900473ffffffffffffffffffffffffffffffffffffffff1673ffffffffffffffffffffffffffffffffffffffff16146126c3576040517f08c379a000000000000000000000000000000000000000000000000000000000815260040180806020018281038252601c8152602001807f43616c6c65722063616e206f6e6c7920626520746865206f776e65720000000081525060200191505060405180910390fd5b80600360026101000a81548160ff02191690831515021790555050565b3373ffffffffffffffffffffffffffffffffffffffff166000809054906101000a900473ffffffffffffffffffffffffffffffffffffffff1673ffffffffffffffffffffffffffffffffffffffff16146127a2576040517f08c379a000000000000000000000000000000000000000000000000000000000815260040180806020018281038252601c8152602001807f43616c6c65722063616e206f6e6c7920626520746865206f776e65720000000081525060200191505060405180910390fd5b80600b60006101000a81548173ffffffffffffffffffffffffffffffffffffffff021916908373ffffffffffffffffffffffffffffffffffffffff16021790555080600e60006101000a81548173ffffffffffffffffffffffffffffffffffffffff021916908373ffffffffffffffffffffffffffffffffffffffff16021790555050565b600080612833836138a6565b905042601060008673ffffffffffffffffffffffffffffffffffffffff1673ffffffffffffffffffffffffffffffffffffffff1681526020019081526020016000206000838152602001908152602001600020600101541180156128f55750601060008573ffffffffffffffffffffffffffffffffffffffff1673ffffffffffffffffffffffffffffffffffffffff168152602001908152602001600020600082815260200190815260200160002060020160009054906101000a900460ff16155b1561296f576201518061296442601060008873ffffffffffffffffffffffffffffffffffffffff1673ffffffffffffffffffffffffffffffffffffffff16815260200190815260200160002060008581526020019081526020016000206001015461439290919063ffffffff16565b8161296b57fe5b0491505b5092915050565b3373ffffffffffffffffffffffffffffffffffffffff166000809054906101000a900473ffffffffffffffffffffffffffffffffffffffff1673ffffffffffffffffffffffffffffffffffffffff1614612a38576040517f08c379a000000000000000000000000000000000000000000000000000000000815260040180806020018281038252601c8152602001807f43616c6c65722063616e206f6e6c7920626520746865206f776e65720000000081525060200191505060405180910390fd5b80600560008473ffffffffffffffffffffffffffffffffffffffff1673ffffffffffffffffffffffffffffffffffffffff168152602001908152602001600020819055505050565b60095481565b60025481565b3373ffffffffffffffffffffffffffffffffffffffff166000809054906101000a900473ffffffffffffffffffffffffffffffffffffffff1673ffffffffffffffffffffffffffffffffffffffff1614612b4e576040517f08c379a000000000000000000000000000000000000000000000000000000000815260040180806020018281038252601c8152602001807f43616c6c65722063616e206f6e6c7920626520746865206f776e65720000000081525060200191505060405180910390fd5b60008060006101000a81548173ffffffffffffffffffffffffffffffffffffffff021916908373ffffffffffffffffffffffffffffffffffffffff160217905550600073ffffffffffffffffffffffffffffffffffffffff166000809054906101000a900473ffffffffffffffffffffffffffffffffffffffff1673ffffffffffffffffffffffffffffffffffffffff167f8be0079c531659141344cd1fd0a4f28419497f9722a3daafe3b4186f6b6457e060405160405180910390a3565b600f6020528160005260406000208181548110612c2657fe5b90600052602060002001600091509150505481565b600360009054906101000a900460ff1681565b3373ffffffffffffffffffffffffffffffffffffffff166000809054906101000a900473ffffffffffffffffffffffffffffffffffffffff1673ffffffffffffffffffffffffffffffffffffffff1614612d10576040517f08c379a000000000000000000000000000000000000000000000000000000000815260040180806020018281038252601c8152602001807f43616c6c65722063616e206f6e6c7920626520746865206f776e65720000000081525060200191505060405180910390fd5b6001600360016101000a81548160ff021916908315150217905550565b3373ffffffffffffffffffffffffffffffffffffffff166000809054906101000a900473ffffffffffffffffffffffffffffffffffffffff1673ffffffffffffffffffffffffffffffffffffffff1614612def576040517f08c379a000000000000000000000000000000000000000000000000000000000815260040180806020018281038252601c8152602001807f43616c6c65722063616e206f6e6c7920626520746865206f776e65720000000081525060200191505060405180910390fd5b60008090505b8151811015612e2757612e1a828281518110612e0d57fe5b60200260200101516139e6565b8080600101915050612df5565b5050565b60015481565b3373ffffffffffffffffffffffffffffffffffffffff166000809054906101000a900473ffffffffffffffffffffffffffffffffffffffff1673ffffffffffffffffffffffffffffffffffffffff1614612ef3576040517f08c379a000000000000000000000000000000000000000000000000000000000815260040180806020018281038252601c8152602001807f43616c6c65722063616e206f6e6c7920626520746865206f776e65720000000081525060200191505060405180910390fd5b80600360006101000a81548160ff02191690831515021790555050565b60008060009054906101000a900473ffffffffffffffffffffffffffffffffffffffff16905090565b60608060206040519080825280601f01601f191660200182016040528015612f705781602001600182028038833980820191505090505b509050600080905060008090505b602081101561301a5760008160080260020a8660001c0260001b9050600060f81b817effffffffffffffffffffffffffffffffffffffffffffffffffffffffffffff19161461300c5780848481518110612fd457fe5b60200101907effffffffffffffffffffffffffffffffffffffffffffffffffffffffffffff1916908160001a90535082806001019350505b508080600101915050612f7e565b506060816040519080825280601f01601f1916602001820160405280156130505781602001600182028038833980820191505090505b50905060008090505b828110156130c05783818151811061306d57fe5b602001015160f81c60f81b82828151811061308457fe5b60200101907effffffffffffffffffffffffffffffffffffffffffffffffffffffffffffff1916908160001a9053508080600101915050613059565b50809350505050919050565b6212750081565b600b60009054906101000a900473ffffffffffffffffffffffffffffffffffffffff1681565b600080613105836138a6565b905042601060008673ffffffffffffffffffffffffffffffffffffffff1673ffffffffffffffffffffffffffffffffffffffff1681526020019081526020016000206000838152602001908152602001600020600101541180156131c75750601060008573ffffffffffffffffffffffffffffffffffffffff1673ffffffffffffffffffffffffffffffffffffffff168152602001908152602001600020600082815260200190815260200160002060020160009054906101000a900460ff16155b156132355761323242601060008773ffffffffffffffffffffffffffffffffffffffff1673ffffffffffffffffffffffffffffffffffffffff16815260200190815260200160002060008481526020019081526020016000206001015461439290919063ffffffff16565b91505b5092915050565b6000600360009054906101000a900460ff166132c0576040517f08c379a00000000000000000000000000000000000000000000000000000000081526004018080602001828103825260108152602001807f4c697374696e67206e6f7420646f6e650000000000000000000000000000000081525060200191505060405180910390fd5b600080600090505b600f60003373ffffffffffffffffffffffffffffffffffffffff1673ffffffffffffffffffffffffffffffffffffffff168152602001908152602001600020805490508110156135095761337833613373600f60003373ffffffffffffffffffffffffffffffffffffffff1673ffffffffffffffffffffffffffffffffffffffff168152602001908152602001600020848154811061336357fe5b9060005260206000200154612f39565b611854565b915060008211156134fc576133968284613e1f90919063ffffffff16565b92506001601060003373ffffffffffffffffffffffffffffffffffffffff1673ffffffffffffffffffffffffffffffffffffffff1681526020019081526020016000206000600f60003373ffffffffffffffffffffffffffffffffffffffff1673ffffffffffffffffffffffffffffffffffffffff168152602001908152602001600020848154811061342557fe5b9060005260206000200154815260200190815260200160002060020160006101000a81548160ff021916908315150217905550600f60003373ffffffffffffffffffffffffffffffffffffffff1673ffffffffffffffffffffffffffffffffffffffff16815260200190815260200160002081815481106134a257fe5b90600052602060002001543373ffffffffffffffffffffffffffffffffffffffff167f11f87fd5adcd05786919b8b868f59a70d78ae4eb6f305c5927f9c5b1659841a4846040518082815260200191505060405180910390a35b80806001019150506132c8565b5060008211156135f957600d60009054906101000a900473ffffffffffffffffffffffffffffffffffffffff1673ffffffffffffffffffffffffffffffffffffffff1663a9059cbb33846040518363ffffffff1660e01b8152600401808373ffffffffffffffffffffffffffffffffffffffff1673ffffffffffffffffffffffffffffffffffffffff16815260200182815260200192505050602060405180830381600087803b1580156135bc57600080fd5b505af11580156135d0573d6000803e3d6000fd5b505050506040513d60208110156135e657600080fd5b8101908080519060200190929190505050505b5090565b600a5481565b600080600090505b600f60008473ffffffffffffffffffffffffffffffffffffffff1673ffffffffffffffffffffffffffffffffffffffff168152602001908152602001600020805490508110156136dc576136cd6136be846136b9600f60008873ffffffffffffffffffffffffffffffffffffffff1673ffffffffffffffffffffffffffffffffffffffff16815260200190815260200160002085815481106136a957fe5b9060005260206000200154612f39565b611854565b83613e1f90919063ffffffff16565b9150808060010191505061360b565b50919050565b600c60009054906101000a900473ffffffffffffffffffffffffffffffffffffffff1681565b3373ffffffffffffffffffffffffffffffffffffffff166000809054906101000a900473ffffffffffffffffffffffffffffffffffffffff1673ffffffffffffffffffffffffffffffffffffffff16146137ca576040517f08c379a000000000000000000000000000000000000000000000000000000000815260040180806020018281038252601c8152602001807f43616c6c65722063616e206f6e6c7920626520746865206f776e65720000000081525060200191505060405180910390fd5b8060098190555050565b3373ffffffffffffffffffffffffffffffffffffffff166000809054906101000a900473ffffffffffffffffffffffffffffffffffffffff1673ffffffffffffffffffffffffffffffffffffffff1614613896576040517f08c379a000000000000000000000000000000000000000000000000000000000815260040180806020018281038252601c8152602001807f43616c6c65722063616e206f6e6c7920626520746865206f776e65720000000081525060200191505060405180910390fd5b8060088190555050565b60085481565b600060608290506000815114156138c3576000801b9150506138cc565b60208301519150505b919050565b6010602052816000526040600020602052806000526040600020600091509150508060000154908060010154908060020160009054906101000a900460ff16905083565b600080613921836138a6565b9050601060008573ffffffffffffffffffffffffffffffffffffffff1673ffffffffffffffffffffffffffffffffffffffff168152602001908152602001600020600082815260200190815260200160002060020160009054906101000a900460ff166139df57601060008573ffffffffffffffffffffffffffffffffffffffff1673ffffffffffffffffffffffffffffffffffffffff16815260200190815260200160002060008281526020019081526020016000206000015491505b5092915050565b3373ffffffffffffffffffffffffffffffffffffffff166000809054906101000a900473ffffffffffffffffffffffffffffffffffffffff1673ffffffffffffffffffffffffffffffffffffffff1614613aa8576040517f08c379a000000000000000000000000000000000000000000000000000000000815260040180806020018281038252601c8152602001807f43616c6c65722063616e206f6e6c7920626520746865206f776e65720000000081525060200191505060405180910390fd5b6001600460008373ffffffffffffffffffffffffffffffffffffffff1673ffffffffffffffffffffffffffffffffffffffff16815260200190815260200160002060006101000a81548160ff021916908315150217905550600854600560008373ffffffffffffffffffffffffffffffffffffffff1673ffffffffffffffffffffffffffffffffffffffff1681526020019081526020016000208190555050565b3373ffffffffffffffffffffffffffffffffffffffff166000809054906101000a900473ffffffffffffffffffffffffffffffffffffffff1673ffffffffffffffffffffffffffffffffffffffff1614613c0b576040517f08c379a000000000000000000000000000000000000000000000000000000000815260040180806020018281038252601c8152602001807f43616c6c65722063616e206f6e6c7920626520746865206f776e65720000000081525060200191505060405180910390fd5b600073ffffffffffffffffffffffffffffffffffffffff168173ffffffffffffffffffffffffffffffffffffffff161415613c91576040517f08c379a00000000000000000000000000000000000000000000000000000000081526004018080602001828103825260248152602001806145a56024913960400191505060405180910390fd5b8073ffffffffffffffffffffffffffffffffffffffff166000809054906101000a900473ffffffffffffffffffffffffffffffffffffffff1673ffffffffffffffffffffffffffffffffffffffff167f8be0079c531659141344cd1fd0a4f28419497f9722a3daafe3b4186f6b6457e060405160405180910390a3806000806101000a81548173ffffffffffffffffffffffffffffffffffffffff021916908373ffffffffffffffffffffffffffffffffffffffff16021790555050565b600080831415613d625760009050613dcf565b6000828402905082848281613d7357fe5b0414613dca576040517f08c379a00000000000000000000000000000000000000000000000000000000081526004018080602001828103825260218152602001806145636021913960400191505060405180910390fd5b809150505b92915050565b6000613e1783836040518060400160405280601a81526020017f536166654d6174683a206469766973696f6e206279207a65726f0000000000008152506143dc565b905092915050565b600080828401905083811015613e9d576040517f08c379a000000000000000000000000000000000000000000000000000000000815260040180806020018281038252601b8152602001807f536166654d6174683a206164646974696f6e206f766572666c6f77000000000081525060200191505060405180910390fd5b8091505092915050565b600e60009054906101000a900473ffffffffffffffffffffffffffffffffffffffff1673ffffffffffffffffffffffffffffffffffffffff166323b872dd33613eee612f10565b846040518463ffffffff1660e01b8152600401808473ffffffffffffffffffffffffffffffffffffffff1673ffffffffffffffffffffffffffffffffffffffff1681526020018373ffffffffffffffffffffffffffffffffffffffff1673ffffffffffffffffffffffffffffffffffffffff1681526020018281526020019350505050602060405180830381600087803b158015613f8b57600080fd5b505af1158015613f9f573d6000803e3d6000fd5b505050506040513d6020811015613fb557600080fd5b81019080805190602001909291905050505050565b600080613fd6856138a6565b90506000613fed8442613e1f90919063ffffffff16565b9050600061400333613ffe85612f39565b613915565b146040518060400160405280601581526020017f546f6b656e7320616c7265616479206c6f636b65640000000000000000000000815250906140e0576040517f08c379a00000000000000000000000000000000000000000000000000000000081526004018080602001828103825283818151815260200191508051906020019080838360005b838110156140a557808201518184015260208101905061408a565b50505050905090810190601f1680156140d25780820380516001836020036101000a031916815260200191505b509250505060405180910390fd5b5060008514156040518060400160405280601381526020017f416d6f756e742063616e206e6f74206265203000000000000000000000000000815250906141c2576040517f08c379a00000000000000000000000000000000000000000000000000000000081526004018080602001828103825283818151815260200191508051906020019080838360005b8381101561418757808201518184015260208101905061416c565b50505050905090810190601f1680156141b45780820380516001836020036101000a031916815260200191505b509250505060405180910390fd5b506000601060003373ffffffffffffffffffffffffffffffffffffffff1673ffffffffffffffffffffffffffffffffffffffff168152602001908152602001600020600084815260200190815260200160002060000154141561428957600f60003373ffffffffffffffffffffffffffffffffffffffff1673ffffffffffffffffffffffffffffffffffffffff1681526020019081526020016000208290806001815401808255809150509060018203906000526020600020016000909192909190915055505b604051806060016040528086815260200182815260200160001515815250601060003373ffffffffffffffffffffffffffffffffffffffff1673ffffffffffffffffffffffffffffffffffffffff1681526020019081526020016000206000848152602001908152602001600020600082015181600001556020820151816001015560408201518160020160006101000a81548160ff021916908315150217905550905050813373ffffffffffffffffffffffffffffffffffffffff167fea90ef40963535482537f0689e05cb8d259e459ebd21530e826702294d0eafdd8784604051808381526020018281526020019250505060405180910390a36001925050509392505050565b60006143d483836040518060400160405280601e81526020017f536166654d6174683a207375627472616374696f6e206f766572666c6f7700008152506144a2565b905092915050565b60008083118290614488576040517f08c379a00000000000000000000000000000000000000000000000000000000081526004018080602001828103825283818151815260200191508051906020019080838360005b8381101561444d578082015181840152602081019050614432565b50505050905090810190601f16801561447a5780820380516001836020036101000a031916815260200191505b509250505060405180910390fd5b50600083858161449457fe5b049050809150509392505050565b600083831115829061454f576040517f08c379a00000000000000000000000000000000000000000000000000000000081526004018080602001828103825283818151815260200191508051906020019080838360005b838110156145145780820151818401526020810190506144f9565b50505050905090810190601f1680156145415780820380516001836020036101000a031916815260200191505b509250505060405180910390fd5b506000838503905080915050939250505056fe536166654d6174683a206d756c7469706c69636174696f6e206f766572666c6f77416464726573732068617320616c726561647920626f7567687420746f6b656e2e4e6577206f776e65722063616e6e6f7420626520746865207a65726f2061646472657373a265627a7a72315820b555bd1289607ccd5ade89d02f5f1736fcd537226be58f56adcaefeb4556388364736f6c63430005100032",
  "source": "pragma solidity 0.5.16;\n\nimport \"./Ownable.sol\";\nimport \"./SafeMath.sol\";\nimport \"./Token.sol\";\n\ncontract PreSaleContract is Ownable {\n    using SafeMath for uint;\n    \n    uint256 public tokenPurchaseInWei;\n    uint256 public contributors;\n    bool public isListingDone;\n    bool public isWhitelistEnabled = true;\n    bool public started = true;\n    \n    // PRE-SALE PRICE 0.11 USDT\n    uint256 public constant BASE_PRICE_IN_WEI = 110000000000000000;\n    uint256 public constant FOURTEEN_DAYS_IN_SECONDS = 1209600;\n    \n    mapping (address=>bool) public whitelistedAddresses;\n    mapping (address=>uint256) public whitelistedAddressesCap;\n    mapping (address=>bool) public salesDonePerUser;\n    \n     /// minimum = 900 USDT\n    uint256 public minWeiPurchasable = 800000000000000000000;\n    // MAX ALLOCATION BY DEFAULT\n    uint256 public maxDefaultUsdtETH = 5000;\n    // TOKEN CAP IN WEI\n    uint256 public tokenCapRevoInWei;\n    \n    // Vesting start date 04/12/2021 6PM00\n    uint256 public vestingStartTime = 1618250400;\n    \n    // ADDRESSES & CONTRACTS\n    address public usdtAddress;\n    address public revoAddress;\n    IToken private revoToken;\n    IToken private usdtToken;\n    \n    event BuyTokenEvent(uint _tokenPurchased);\n  \n   /**\n    * @dev Error messages for require statements\n    */\n    string internal constant ALREADY_LOCKED = \"Tokens already locked\";\n    string internal constant NOT_LOCKED = \"No tokens locked\";\n    string internal constant AMOUNT_ZERO = \"Amount can not be 0\";\n    \n    mapping(address => bytes32[]) public lockReason;\n\n    struct lockToken {\n        uint256 amount;\n        uint256 validity;\n        bool claimed;\n    }\n\n    mapping(address => mapping(bytes32 => lockToken)) public locked;\n\n    event Locked(\n        address indexed _of,\n        bytes32 indexed _reason,\n        uint256 _amount,\n        uint256 _validity\n    );\n\n    event Unlocked(\n        address indexed _of,\n        bytes32 indexed _reason,\n        uint256 _amount\n    );\n\n   /**\n    * @dev constructor to mint initial tokens\n    * Shall update to _mint once openzepplin updates their npm package.\n    */\n    constructor(address revoTokenAddress, address _usdtAddress, uint256 maxCapRevoInWei) public {\n        setUSDTAddress(_usdtAddress);\n        setRevoAddress(revoTokenAddress);\n        setTokenCapInWei(maxCapRevoInWei);\n    }\n    \n    /**\n   * Low level token purchase function\n   */\n    function buyTokens(uint256 amountUSDTInWei) public payable validPurchase(amountUSDTInWei) {\n        salesDonePerUser[msg.sender] = true;\n\n        uint256 tokenCountWei = amountUSDTInWei.mul(10**18).div(BASE_PRICE_IN_WEI);\n\n        tokenPurchaseInWei = tokenPurchaseInWei.add(tokenCountWei);\n        \n        require(tokenPurchaseInWei <= tokenCapRevoInWei, \"Not enough token for sale.\");\n    \n        contributors = contributors.add(1);\n        \n        forwardFunds(amountUSDTInWei);\n        \n        //LOCK PART\n        uint lockAmountStage = calculatePercentage(tokenCountWei, 20, 1000000);\n\n        lock(\"lock_1\", lockAmountStage, 0); //First unlock at listing\n        lock(\"lock_2\", lockAmountStage, vestingStartTime.sub(now).add(FOURTEEN_DAYS_IN_SECONDS.mul(1))); //04/12/2021 + 14 days\n        lock(\"lock_3\", lockAmountStage, vestingStartTime.sub(now).add(FOURTEEN_DAYS_IN_SECONDS.mul(2))); //04/12/2021 + 28 days\n        lock(\"lock_4\", lockAmountStage, vestingStartTime.sub(now).add(FOURTEEN_DAYS_IN_SECONDS.mul(3))); //04/12/2021 + 42 days\n        lock(\"lock_5\", lockAmountStage, vestingStartTime.sub(now).add(FOURTEEN_DAYS_IN_SECONDS.mul(4))); //04/12/2021 + 56 days\n        \n\n        emit BuyTokenEvent(tokenPurchaseInWei);\n    }\n    \n    modifier validPurchase(uint256 amountUSDTInWei) {\n        require(started, \"Pre-sale not started.\");\n        require(!isWhitelistEnabled || whitelistedAddresses[msg.sender] == true, \"Not whitelisted.\");\n        require(amountUSDTInWei >= minWeiPurchasable, \"Below min price allowed.\");\n        require(amountUSDTInWei <= (whitelistedAddressesCap[msg.sender]).mul(10**18), \"Above max price allowed.\");\n        require(salesDonePerUser[msg.sender] == false, \"Address has already bought token.\");\n        _;\n    }\n\n    /**\n    * Forwards funds to the tokensale wallet\n    */\n    function forwardFunds(uint256 amount) internal {\n        usdtToken.transferFrom(msg.sender, address(owner()), amount);\n    }\n\n\n    function enableWhitelistVerification() public onlyOwner {\n        isWhitelistEnabled = true;\n    }\n    \n    function disableWhitelistVerification() public onlyOwner {\n        isWhitelistEnabled = false;\n    }\n    \n    function changeMinWeiPurchasable(uint256 value) public onlyOwner {\n        minWeiPurchasable = value;\n    }\n    \n    function changeStartedState(bool value) public onlyOwner {\n        started = value;\n    }\n    \n    function addToWhitelistPartners(address[] memory _addresses, uint256[] memory _maxCaps) public onlyOwner {\n        for(uint256 i = 0; i < _addresses.length; i++) {\n            whitelistedAddresses[_addresses[i]] = true;\n            updateWhitelistAdressCap(_addresses[i], _maxCaps[i]);\n        }\n    }\n    \n    function updateWhitelistAdressCap(address _address, uint256 _maxCap) public onlyOwner {\n        whitelistedAddressesCap[_address] = _maxCap;\n    }\n\n    function addToWhitelist(address _address) public onlyOwner {\n        whitelistedAddresses[_address] = true;\n        whitelistedAddressesCap[_address] = maxDefaultUsdtETH;\n    }\n    \n    function addToWhitelist(address[] memory addresses) public onlyOwner {\n        for(uint i = 0; i < addresses.length; i++) {\n            addToWhitelist(addresses[i]);\n        }\n    }\n    \n    function isAddressWhitelisted(address _address) view public returns(bool) {\n        return !isWhitelistEnabled || whitelistedAddresses[_address] == true;\n    }\n    \n    function withdrawTokens(uint256 amount) public onlyOwner {\n        revoToken.transfer(owner(), amount);\n    }\n    \n    function setListingDone(bool isDone) public onlyOwner {\n        isListingDone = isDone;\n    }\n    \n    function setUSDTAddress(address _usdtAddress) public onlyOwner{\n        usdtAddress = _usdtAddress;\n        usdtToken = IToken(_usdtAddress);\n    }\n    \n    function setRevoAddress(address _revoAddress) public onlyOwner{\n        revoAddress = _revoAddress;\n        revoToken = IToken(_revoAddress);\n    }\n    \n    //ETH Value not WEI\n    function setMaxDefaultUsdtAllocInEth(uint256 _maxDefaultUsdtETH) public onlyOwner{\n        maxDefaultUsdtETH = _maxDefaultUsdtETH;\n    }\n    \n    //Set Token Cap in WEI\n    function setTokenCapInWei(uint256 _tokenCapRevoInWei) public onlyOwner{\n        tokenCapRevoInWei = _tokenCapRevoInWei;\n    }\n    \n    /*\n        LOCK PART\n    */\n\n    /**\n     * @dev Locks a specified amount of tokens against an address,\n     *      for a specified reason and time\n     * @param _reason The reason to lock tokens\n     * @param _amount Number of tokens to be locked\n     * @param _time Lock time in seconds\n     */\n    function lock(string memory _reason, uint256 _amount, uint256 _time) private returns (bool) {\n        bytes32 reason = stringToBytes32(_reason);\n        uint256 validUntil = now.add(_time); //solhint-disable-line\n\n        // If tokens are already locked, then functions extendLock or\n        // increaseLockAmount should be used to make any changes\n        require(tokensLocked(msg.sender, bytes32ToString(reason)) == 0, ALREADY_LOCKED);\n        require(_amount != 0, AMOUNT_ZERO);\n\n        if (locked[msg.sender][reason].amount == 0)\n            lockReason[msg.sender].push(reason);\n\n        locked[msg.sender][reason] = lockToken(_amount, validUntil, false);\n\n        emit Locked(msg.sender, reason, _amount, validUntil);\n        return true;\n    }\n    \n    /**\n     * @dev Returns tokens locked for a specified address for a\n     *      specified reason\n     *\n     * @param _of The address whose tokens are locked\n     * @param _reason The reason to query the lock tokens for\n     */\n    function tokensLocked(address _of, string memory _reason) public view returns (uint256 amount) {\n        bytes32 reason = stringToBytes32(_reason);\n        if (!locked[_of][reason].claimed)\n            amount = locked[_of][reason].amount;\n    }\n\n    /**\n     * @dev Returns total tokens held by an address (locked + transferable)\n     * @param _of The address to query the total balance of\n     */\n    function totalBalanceOf(address _of) public view returns (uint256 amount) {\n        amount = revoToken.balanceOf(_of);\n\n        for (uint256 i = 0; i < lockReason[_of].length; i++) {\n            amount = amount.add(tokensLocked(_of, bytes32ToString(lockReason[_of][i])));\n        }   \n    }\n\n    /**\n     * @dev Returns unlockable tokens for a specified address for a specified reason\n     * @param _of The address to query the the unlockable token count of\n     * @param _reason The reason to query the unlockable tokens for\n     */\n    function tokensUnlockable(address _of, string memory _reason) public view returns (uint256 amount) {\n        bytes32 reason = stringToBytes32(_reason);\n        if (locked[_of][reason].validity <= now && !locked[_of][reason].claimed) //solhint-disable-line\n            amount = locked[_of][reason].amount;\n    }\n\n    /**\n     * @dev Unlocks the unlockable tokens of a specified address\n     */\n    function unlock() public returns (uint256 unlockableTokens) {\n        require(isListingDone, \"Listing not done\");\n        \n        uint256 lockedTokens;\n\n        for (uint256 i = 0; i < lockReason[msg.sender].length; i++) {\n            lockedTokens = tokensUnlockable(msg.sender, bytes32ToString(lockReason[msg.sender][i]));\n            if (lockedTokens > 0) {\n                unlockableTokens = unlockableTokens.add(lockedTokens);\n                locked[msg.sender][lockReason[msg.sender][i]].claimed = true;\n                emit Unlocked(msg.sender, lockReason[msg.sender][i], lockedTokens);\n            }\n        }  \n\n        if (unlockableTokens > 0)\n            revoToken.transfer(msg.sender, unlockableTokens);\n    }\n\n    /**\n     * @dev Gets the unlockable tokens of a specified address\n     * @param _of The address to query the the unlockable token count of\n     */\n    function getUnlockableTokens(address _of) public view returns (uint256 unlockableTokens) {\n        for (uint256 i = 0; i < lockReason[_of].length; i++) {\n            unlockableTokens = unlockableTokens.add(tokensUnlockable(_of, bytes32ToString(lockReason[_of][i])));\n        }  \n    }\n    \n    function getremainingLockTime(address _of, string memory _reason) public view returns (uint256 remainingTime) {\n        bytes32 reason = stringToBytes32(_reason);\n        if (locked[_of][reason].validity > now && !locked[_of][reason].claimed) //solhint-disable-line\n            remainingTime = locked[_of][reason].validity.sub(now);\n    }\n    \n    function getremainingLockDays(address _of, string memory _reason) public view returns (uint256 remainingDays) {\n        bytes32 reason = stringToBytes32(_reason);\n        if (locked[_of][reason].validity > now && !locked[_of][reason].claimed) //solhint-disable-line\n            remainingDays = (locked[_of][reason].validity.sub(now)) / 86400;\n    }\n    \n    /*\n    UTILS\n    */\n    \n    function stringToBytes32(string memory source) public pure returns (bytes32 result) {\n        bytes memory tempEmptyStringTest = bytes(source);\n        if (tempEmptyStringTest.length == 0) {\n            return 0x0;\n        }\n    \n        assembly {\n            result := mload(add(source, 32))\n        }\n    }\n    \n    function bytes32ToString(bytes32 x) public pure returns (string memory) {\n        bytes memory bytesString = new bytes(32);\n        uint charCount = 0;\n        for (uint j = 0; j < 32; j++) {\n            byte char = byte(bytes32(uint(x) * 2 ** (8 * j)));\n            if (char != 0) {\n                bytesString[charCount] = char;\n                charCount++;\n            }\n        }\n        bytes memory bytesStringTrimmed = new bytes(charCount);\n        for (uint256 j = 0; j < charCount; j++) {\n            bytesStringTrimmed[j] = bytesString[j];\n        }\n        return string(bytesStringTrimmed);\n    }\n    \n    function calculatePercentage(uint256 amount, uint256 percentage, uint256 precision) public pure returns(uint256){\n        return amount.mul(precision).mul(percentage).div(100).div(precision);\n    }\n}",
  "sourcePath": "D:/Projects/Rivalry/contracts/Presale.sol",
  "compiler": {
    "name": "solc",
    "version": "0.5.16+commit.9c3226ce.Emscripten.clang"
  },
  "schemaVersion": "3.4.1",
  "updatedAt": "2021-06-05T21:11:55.781Z",
  "devdoc": {
    "methods": {
      "constructor": {
        "details": "constructor to mint initial tokens Shall update to _mint once openzepplin updates their npm package."
      },
      "getUnlockableTokens(address)": {
        "details": "Gets the unlockable tokens of a specified address",
        "params": {
          "_of": "The address to query the the unlockable token count of"
        }
      },
      "tokensLocked(address,string)": {
        "details": "Returns tokens locked for a specified address for a     specified reason",
        "params": {
          "_of": "The address whose tokens are locked",
          "_reason": "The reason to query the lock tokens for"
        }
      },
      "tokensUnlockable(address,string)": {
        "details": "Returns unlockable tokens for a specified address for a specified reason",
        "params": {
          "_of": "The address to query the the unlockable token count of",
          "_reason": "The reason to query the unlockable tokens for"
        }
      },
      "totalBalanceOf(address)": {
        "details": "Returns total tokens held by an address (locked + transferable)",
        "params": {
          "_of": "The address to query the total balance of"
        }
      },
      "unlock()": {
        "details": "Unlocks the unlockable tokens of a specified address"
      }
    }
  },
  "userdoc": {
    "methods": {
      "buyTokens(uint256)": {
        "notice": "Low level token purchase function"
      }
    }
  }
}